package testutils

// Test tx for bundle-failed-too-many-times MM1 fix
var TestTx_BundleFailedTooManyTimes_RawTx = "0x02f9019d011e843b9aca008477359400830247fa94def1c0ded9bec7f1a1670819833240f027b25eff88016345785d8a0000b90128d9627aa40000000000000000000000000000000000000000000000000000000000000080000000000000000000000000000000000000000000000000016345785d8a000000000000000000000000000000000000000000000000001394b63b2cbaea253a00000000000000000000000000000000000000000000000000000000000000000000000000000000000000000000000000000000000000000000000000000002000000000000000000000000eeeeeeeeeeeeeeeeeeeeeeeeeeeeeeeeeeeeeeee0000000000000000000000006b175474e89094c44da98b954eedeac495271d0f869584cd00000000000000000000000086003b044f70dac0abc80ac8957305b6370893ed0000000000000000000000000000000000000000000000d3443651ba615f6cd6c001a011a9f58ebe30aa679783b31793f897fdb603dd2ea086845723a22dae85ab2864a0090cf1fcce0f6e85da54f4eccf32a485d71a7d39bc0b43a53a9e64901c656230"
var TestTx_BundleFailedTooManyTimes_From = "0xc84edF69E78C0E9dE5ccFE4fB9017F6F7566787f"
var TestTx_BundleFailedTooManyTimes_Hash = "0xfb34b88cd77215867aa8e8ff0abc7060178b8fed6519a85d0b22853dfd5e9fec"
var TestTx_BundleFailedTooManyTimes_Nonce = "0x1e"

// Test tx for MM2 fix
var TestTx_MM2_RawTx = "0xf86980850e5b35485d8252089409f427f1bd2d7537a02812275d03be7747dbd68c859d64bd68008025a0a94ba415e4d7c517548551442828aa192f149a8a04554e452084ee0ea55ea013a015966c84d9d38779ce63454a3f38038b269544d70433bfa7db0f6a37034b8e93"
var TestTx_MM2_From = "0x7AaBc7915DF92a85E199DbB4B1D21E637e1a90A2"
var TestTx_MM2_Hash = "0xc543e2ad05cffdee95b984df20edd2e38e124c54461faa1276adc36e826588c9"

// Test tx for MM2 fix
var TestTx_CancelAtRelay_Initial_RawTx = "0x02f90197010c851a13b86000851a13b860008302134094def1c0ded9bec7f1a1670819833240f027b25eff80b90128d9627aa400000000000000000000000000000000000000000000000000000000000000800000000000000000000000000000000000000000000000008b6f8cc1baffdb0400000000000000000000000000000000000000000000000000084b1e89ebc7c5000000000000000000000000000000000000000000000000000000000000000100000000000000000000000000000000000000000000000000000000000000020000000000000000000000006b175474e89094c44da98b954eedeac495271d0f000000000000000000000000eeeeeeeeeeeeeeeeeeeeeeeeeeeeeeeeeeeeeeee869584cd00000000000000000000000086003b044f70dac0abc80ac8957305b6370893ed0000000000000000000000000000000000000000000000c2b17f6d6d619e0daac080a032854f4cd2ef72624bd4b24ac933677fa82d68915fb40cbc5ded938e55e0d60ba03d668997706bf52d9d6fd06de1e0b3ecb5de60c78faba54ee6f61c017236b530"
var TestTx_CancelAtRelay_Cancel_RawTx = "0x02f86d010c851caf4ad000851caf4ad0008302134094c0e1142e97a9679fa0f9c13067af656cc24753738080c080a04db949f68b275646517c8225f2b783476579bfc58b6e6af9c0ead0b41f3f5fb1a0540bbff674288973d5c82c25bc7b8fe42343c4d64d85f79a9e21ab6698738103"
var TestTx_CancelAtRelay_Cancel_Hash = "0x0a5237dafa5e65d7e5030b08012fd8399206a9130fbc9f2d3d5cf3865fa972ef"
var TestTx_CancelAtRelay_Cancel_From = "0xc0E1142E97A9679FA0f9C13067Af656Cc2475373"
var TestTx_CancelAtRelay_Cancel_Nonce = "0xc"
