package testutils

// Test tx for bundle-failed-too-many-times MM1 fix
var TestTx_BundleFailedTooManyTimes_RawTx = "0x02f9019d011e843b9aca008477359400830247fa94def1c0ded9bec7f1a1670819833240f027b25eff88016345785d8a0000b90128d9627aa40000000000000000000000000000000000000000000000000000000000000080000000000000000000000000000000000000000000000000016345785d8a000000000000000000000000000000000000000000000000001394b63b2cbaea253a00000000000000000000000000000000000000000000000000000000000000000000000000000000000000000000000000000000000000000000000000000002000000000000000000000000eeeeeeeeeeeeeeeeeeeeeeeeeeeeeeeeeeeeeeee0000000000000000000000006b175474e89094c44da98b954eedeac495271d0f869584cd00000000000000000000000086003b044f70dac0abc80ac8957305b6370893ed0000000000000000000000000000000000000000000000d3443651ba615f6cd6c001a011a9f58ebe30aa679783b31793f897fdb603dd2ea086845723a22dae85ab2864a0090cf1fcce0f6e85da54f4eccf32a485d71a7d39bc0b43a53a9e64901c656230"
var TestTx_BundleFailedTooManyTimes_From = "0xc84edF69E78C0E9dE5ccFE4fB9017F6F7566787f"
var TestTx_BundleFailedTooManyTimes_Hash = "0xfb34b88cd77215867aa8e8ff0abc7060178b8fed6519a85d0b22853dfd5e9fec"
var TestTx_BundleFailedTooManyTimes_Nonce = "0x1e"

// Test tx for MM2 fix
var TestTx_MM2_RawTx = "0xf86980850e5b35485d8252089409f427f1bd2d7537a02812275d03be7747dbd68c859d64bd68008025a0a94ba415e4d7c517548551442828aa192f149a8a04554e452084ee0ea55ea013a015966c84d9d38779ce63454a3f38038b269544d70433bfa7db0f6a37034b8e93"
var TestTx_MM2_From = "0x7AaBc7915DF92a85E199DbB4B1D21E637e1a90A2"
var TestTx_MM2_Hash = "0xc543e2ad05cffdee95b984df20edd2e38e124c54461faa1276adc36e826588c9"

// Test tx for MM2 fix
var TestTx_CancelAtRelay_Initial_RawTx = "0x02f90197010c851a13b86000851a13b860008302134094def1c0ded9bec7f1a1670819833240f027b25eff80b90128d9627aa400000000000000000000000000000000000000000000000000000000000000800000000000000000000000000000000000000000000000008b6f8cc1baffdb0400000000000000000000000000000000000000000000000000084b1e89ebc7c5000000000000000000000000000000000000000000000000000000000000000100000000000000000000000000000000000000000000000000000000000000020000000000000000000000006b175474e89094c44da98b954eedeac495271d0f000000000000000000000000eeeeeeeeeeeeeeeeeeeeeeeeeeeeeeeeeeeeeeee869584cd00000000000000000000000086003b044f70dac0abc80ac8957305b6370893ed0000000000000000000000000000000000000000000000c2b17f6d6d619e0daac080a032854f4cd2ef72624bd4b24ac933677fa82d68915fb40cbc5ded938e55e0d60ba03d668997706bf52d9d6fd06de1e0b3ecb5de60c78faba54ee6f61c017236b530"
var TestTx_CancelAtRelay_Cancel_RawTx = "0x02f86d010c851caf4ad000851caf4ad0008302134094c0e1142e97a9679fa0f9c13067af656cc24753738080c080a04db949f68b275646517c8225f2b783476579bfc58b6e6af9c0ead0b41f3f5fb1a0540bbff674288973d5c82c25bc7b8fe42343c4d64d85f79a9e21ab6698738103"
var TestTx_CancelAtRelay_Cancel_Hash = "0x0a5237dafa5e65d7e5030b08012fd8399206a9130fbc9f2d3d5cf3865fa972ef"
var TestTx_CancelAtRelay_Cancel_From = "0xc0E1142E97A9679FA0f9C13067Af656Cc2475373"
var TestTx_CancelAtRelay_Cancel_Nonce = "0xc"

// Test sendRawTx invalid nonce
var TestTx_Invalid_Nonce_1 = "0xf9016d8226068514c5fa06a88307a12394d9e1ce17f2641f24ae83637ab66a2cca9c378b9f80b9010418cbafe5000000000000000000000000000000000000000000000131e2aaad46e36000000000000000000000000000000000000000000000000000004e002aee3c56380000000000000000000000000000000000000000000000000000000000000000a0000000000000000000000000bfd6fbc015907976a48eb83fd1d972b2bfc4ce4600000000000000000000000000000000000000000000000000000000621731cf000000000000000000000000000000000000000000000000000000000000000200000000000000000000000025f8087ead173b73d6e8b84329989a8eea16cf73000000000000000000000000c02aaa39b223fe8d0a0e5c4f27ead9083c756cc225a081ddc6c2ee6d93d5eba52e12c9b44524c28d6d724efc903110e4cab13ba98d6ba03e7c22541060787da52f36d52b826f7a53ee892d75a0a626a9f9d51a4b99f2ba"
var TestTx_Invalid_Nonce_2 = "0x02f90c530142850826299e00850826299e0083048f6f947f268357a8c2552623316e2562d90e642bb538e580b90be4ab834bab0000000000000000000000007f268357a8c2552623316e2562d90e642bb538e5000000000000000000000000604a35a2a4df447cecbebab73158cd516de7fcbb00000000000000000000000000000000000000000000000000000000000000000000000000000000000000005b3256965e7c3cf26e11fcaf296dfc8807c01073000000000000000000000000baf2127b49fc93cbca6269fade0f7f31df4c88a70000000000000000000000000000000000000000000000000000000000000000000000000000000000000000c02aaa39b223fe8d0a0e5c4f27ead9083c756cc20000000000000000000000007f268357a8c2552623316e2562d90e642bb538e50000000000000000000000001eac87b51afabba0d40e7f207e96f1943d149ed4000000000000000000000000604a35a2a4df447cecbebab73158cd516de7fcbb0000000000000000000000000000000000000000000000000000000000000000000000000000000000000000baf2127b49fc93cbca6269fade0f7f31df4c88a70000000000000000000000000000000000000000000000000000000000000000000000000000000000000000c02aaa39b223fe8d0a0e5c4f27ead9083c756cc2000000000000000000000000000000000000000000000000000000000000000000000000000000000000000000000000000000000000000000000000000004e20000000000000000000000000000000000000000000000000000000000000000000000000000000000000000000000000000000000000000000000000000000000000000000000000000000000000000000000000000000009b6e64a8ec600000000000000000000000000000000000000000000000000000000000000000000000000000000000000000000000000000000000000000000000000006217417000000000000000000000000000000000000000000000000000000000621b364b8f6ddfb08291623280c02ebc90b83bfc7f15a571590c0b8b339662b5197fbc17000000000000000000000000000000000000000000000000000000000000000000000000000000000000000000000000000000000000000000000000000004e20000000000000000000000000000000000000000000000000000000000000000000000000000000000000000000000000000000000000000000000000000000000000000000000000000000000000000000000000000000009b6e64a8ec600000000000000000000000000000000000000000000000000000000000000000000000000000000000000000000000000000000000000000000000000006217dc7d00000000000000000000000000000000000000000000000000000000000000007195b39cdac6182e6bdd34771bd43d7d457db6590ae2fd7901b5ff65de26b1d90000000000000000000000000000000000000000000000000000000000000001000000000000000000000000000000000000000000000000000000000000000000000000000000000000000000000000000000000000000000000000000000000000000000000000000000000000000000000000000000000000000000000001000000000000000000000000000000000000000000000000000000000000000100000000000000000000000000000000000000000000000000000000000000010000000000000000000000000000000000000000000000000000000000000000000000000000000000000000000000000000000000000000000000000000000100000000000000000000000000000000000000000000000000000000000006a000000000000000000000000000000000000000000000000000000000000007e000000000000000000000000000000000000000000000000000000000000009200000000000000000000000000000000000000000000000000000000000000a600000000000000000000000000000000000000000000000000000000000000ba00000000000000000000000000000000000000000000000000000000000000bc0000000000000000000000000000000000000000000000000000000000000001c000000000000000000000000000000000000000000000000000000000000001c5f0c6b3f7dcc767b2be33609e16c39a739aa1e7be3a33174914f531e510cf8cf0a0268c5192a8a78808bcee4c73f00f83beebf5cc4713e0d305facc196e227485f0c6b3f7dcc767b2be33609e16c39a739aa1e7be3a33174914f531e510cf8cf0a0268c5192a8a78808bcee4c73f00f83beebf5cc4713e0d305facc196e227480000000000000000000000000000000000000000000000000000000000000000000000000000000000000000000000000000000000000000000000000000010496809f900000000000000000000000000000000000000000000000000000000000000000000000000000000000000000604a35a2a4df447cecbebab73158cd516de7fcbb000000000000000000000000495f947276749ce646f68ac8c248420045cb7b5eda9c56071673633dd0582b2741b77b51b92c3fb60000000000003a00000000010000000000000000000000000000000000000000000000000000000000000001000000000000000000000000000000000000000000000000000000000000000000000000000000000000000000000000000000000000000000000000000000e0000000000000000000000000000000000000000000000000000000000000000000000000000000000000000000000000000000000000000000000000000000000000000000000000000000000000000000000000000000000000010496809f900000000000000000000000001eac87b51afabba0d40e7f207e96f1943d149ed40000000000000000000000000000000000000000000000000000000000000000000000000000000000000000495f947276749ce646f68ac8c248420045cb7b5eda9c56071673633dd0582b2741b77b51b92c3fb60000000000003a00000000010000000000000000000000000000000000000000000000000000000000000001000000000000000000000000000000000000000000000000000000000000000000000000000000000000000000000000000000000000000000000000000000e0000000000000000000000000000000000000000000000000000000000000000000000000000000000000000000000000000000000000000000000000000000000000000000000000000000000000000000000000000000000000010400000000ffffffffffffffffffffffffffffffffffffffffffffffffffffffffffffffff0000000000000000000000000000000000000000000000000000000000000000000000000000000000000000000000000000000000000000000000000000000000000000000000000000000000000000000000000000000000000000000000000000000000000000000000000000000000000000000000000000000000000000000000000000000000000000000000000000000000000000000000000000000000000000000000000000000000000000000000000000000000000000000000000000000000000000000000000000000000000000000000000000000000000000000000000000000000000000000000000000000000000000000000000000000000000000000000000000000000000000000000000000000000000104000000000000000000000000000000000000000000000000000000000000000000000000ffffffffffffffffffffffffffffffffffffffffffffffffffffffffffffffff0000000000000000000000000000000000000000000000000000000000000000000000000000000000000000000000000000000000000000000000000000000000000000000000000000000000000000000000000000000000000000000000000000000000000000000000000000000000000000000000000000000000000000000000000000000000000000000000000000000000000000000000000000000000000000000000000000000000000000000000000000000000000000000000000000000000000000000000000000000000000000000000000000000000000000000000000000000000000000000000000000000000000000000000000000000000000000000000000000000000000000000000000000000000000000c001a02ad50113dbf4a09106aa555adf652b9cc0a1eaf0a7cc9dbd242730f768f4f501a05a9eb25e3b358065d7191b91919d2a5dcdae4c516ba1a6c40247ab802f140fd1"
